:100000000C9446000C94452E0C94452E0C94452ED1
:100010000C94452E0C94452E0C94452E0C94452E94
:100020000C94452E0C94452E0C94452E0C94452E84
:100030000C94452E0C94452E0C94452E0C94452E74
:100040000C94452E0C94452E0C94452E0C94452E64
:100050000C94452ECC1BF41B261C5A1C6B1C761CC6
:10006000811C8B1C951CBA1CDF1C0E1D3F1D4F1DD7
:100070005A1D651D701D7B1DA323B323C323D323EA
:10008000E323F323032400600066800011241FBED5
:10009000CFE5D8E0DEBFCDBFE6E8F0E040E017C036
:1000A000B591A59135912591059107FD0CC09591CC
:1000B0008591EF01F92FE82F05900D92A217B30754
:1000C000D9F7FE0104C01D92A217B307E1F7EB3880
:1000D000F40731F70E94360B0C94C62DF894FFCF2D
:1000E00083F9A200444E6E00FC291500D157270069
:1000F000DD34F50062DBC0003C999500419043007F
:100100006351FE00BBDEAB00B761C5003A6E240050
:10011000D24D42004906E00009EA2E001C92D100AF
:10012000EB1DFE0029B11C00E83EA700F53582005A
:1001300044BB2E009CE98400B4267000417E5F0021
:10014000D6913900538339009CF439008B5F8400C9
:1001500028F9BD00F81F3B00DEFF97000F9805004F
:10016000112FEF000A5A8B006D1F6D00CF7E3600F5
:1001700009CB2700464FB7009E663F002DEA5F007F
:10018000BA277500E5EBC7003D7BF100F7390700A2
:1001900092528A00FB6BEA001FB15F00085D8D0080
:1001A000300356007BFC4600F0AB6B0020BCCF0058
:1001B00036F49A00E3A91D005E619100081BE60079
:1001C00085996500A0145F008D40680080D8FF000D
:1001D00027734D0006063100CA561500C9A87300E2
:0801E0007BE260006B8CC000A3
:1001E800DA0FC93F6821A233C434C2278B62C61B09
:1001F8001CDC800F0229D10314000000000000005D
:100208006937AC3168212233B40F14336821A23323
:100218003863ED3EDA0F493F5E987B3FDA0FC93FFE
:080228000300040004000600BD
:10023000A1E7B1E0EEE1F1E00C94592CCB59DE4F8F
:100240008883C556D140C759DE4F9883C956D140DF
:10025000C35ADE4F79836883CD55D1407A01C75B9D
:10026000DE4F39832883C954D140CD59DE4F1983DD
:100270000883C356D140C801880F991F092E000C6E
:10028000AA0B885D9D4FAF4FFC015A2F0E94D92DBC
:100290004B01770FAA08BB08CB5ADE4F88829982A0
:1002A000AA82BB82C555D140C90101975C01990F53
:1002B000CC08DD08CF5ADE4FA882B982CA82DB8221
:1002C000C155D140C701039768E170E00E94D42C6A
:1002D00077FD0DC04B01770FAA08BB08C75ADE4F48
:1002E00088829982AA82BB82C955D14008C0C75A68
:1002F000DE4F188219821A821B82C955D140A8EE9E
:10030000BFEFC75ADE4F288139814A815B81C955C9
:10031000D1402F5F3F4F4F4F5F4F0E94D42D870139
:10032000FF0C220B330B5B016C01A00EB11EC21E31
:10033000D31ECF5BDE4FA882B982CA82DB82C15452
:10034000D140C75ADE4F488059806A807B80C955AA
:10035000D140CF5ADE4FC880D980EA80FB80C1559A
:10036000D1404C185D086E087F08CB5ADE4F88805C
:100370009980AA80BB80C555D1408C0C9D1CAE1CB9
:10038000BF1CCB5BDE4F88829982AA82BB82C55498
:10039000D1408E010F551F4F6201CC0CDD1CCC0CDF
:1003A000DD1CC601DD0CAA0B9C014A2F20523F4FD9
:1003B0004F4F6901E42E812C912C5401CB5BDE4F11
:1003C000288139814A815B81C554D140281539057E
:1003D0004A055B0514F1D501C401840D951DA61DC8
:1003E000B71DB7FD07C0F6015E2D0E94A42D0E9427
:1003F0007C2903C060E070E0CB01D8016D937D9350
:100400008D939D938D01BFEF8B1A9B0AAB0ABB0A9C
:10041000E4E0CE0ED11CE11CD1CF8E010F5F1F4F47
:10042000C35BDE4F19830883CD54D140C75BDE4FD9
:1004300088809980C954D140C401990CAA0BBB0B88
:100440000197A109B1095C01AA0CBB1CAA0CBB1C39
:10045000C15ADE4FB982A882CF55D140212C312C10
:10046000412C512C3201CB5ADE4F88809980AA80D2
:10047000BB80C555D14084149504A604B7040CF480
:1004800084C0CB59DE4F9880C556D140CB5BDE4F40
:100490009882C554D140C759DE4FA880C956D14073
:1004A000CA5BDE4FA882C654D140C15ADE4FC88015
:1004B000D980CF55D140C20CD31CC959DE4FD98247
:1004C000C882C756D14000E010E0812C912C540125
:1004D000C12CD12C7601CF5ADE4F288139814A8137
:1004E0005B81C155D1402C153D054E055F05A4F13A
:1004F000C959DE4FE881F981C756D140E00FF11F9D
:1005000021EA30E02C0F3D1FE20FF31FCB5BDE4FE3
:10051000A881B981C554D1402D913D914D915D91F6
:10052000CB5BDE4FB983A883C554D1406081718114
:10053000828193810E943E2E9B01AC01C501B401D2
:100540000E94F02D4B015C01BFEFCB1ADB0AEB0AD6
:10055000FB0A04501109BFCFC35BDE4FA881B981EC
:10056000CD54D1408D929D92AD92BD92C35BDE4F32
:10057000B983A883CD54D140BFEF4B1A5B0A6B0AF5
:100580007B0AE4E02E0E311C6ECFCB5ADE4F888101
:100590009981AA81BB81C555D1400197A109B109B3
:1005A0007C01EE0CFF1CEE0CFF1CC459DE4FF982DF
:1005B000E882CC56D140CB5ADE4F488059806A80C1
:1005C0007B80C555D140C75BDE4F88819981C95476
:1005D000D14001974C01990FAA08BB08C259DE4FC0
:1005E00088829982AA82BB82CE56D1405201AA0C3F
:1005F000BB1CAA0CBB1CC35BDE4FB982A882CD54C6
:10060000D140E1E0F0E0EC0FFD1FEA0DFB1DC080E2
:10061000D180E280F3801E0101EF200E311CD30156
:10062000C2010197A109B1094C01880C991C880CE1
:10063000991CC15ADE4F99828882CF55D140CB5B3D
:10064000DE4F39822882C554D1405301420100E077
:1006500010E0181419041A041B040CF059C020E00F
:1006600030E040E853E3C701B6010E943E2E0E94ED
:10067000F62D0E947C29C75BDE4F688379838A83CD
:100680009B83C954D14020E030E040E85BE40E9405
:100690003E2E9B01AC01C701B6010E94EF2D0E94C6
:1006A000F62DCB5BDE4FA881B981C554D1406D9347
:1006B0007D938D939D93CB5BDE4FB983A883C55407
:1006C000D140B1E08B1A9108A108B108C15ADE4FA0
:1006D000E881F981CF55D140E00FF11FCC24C394BC
:1006E000D12CCC0EDD1EEC0DFD1D2081318142810F
:1006F0005381C75BDE4F688179818A819B81C954B0
:10070000D1400E94F02D6B017C0104501109A1CF52
:10071000CF5BDE4F08811981C154D140A801C701C8
:10072000B6010E9413286B017C0120E030E040E01C
:100730005EE30E943E2E0E94002320E030E040E075
:1007400051E40E943E2E9B01AC01C701B6010E94FC
:10075000EF2D6B017C010E94F62DC75BDE4F688395
:1007600079838A839B83C954D1400E947C299B0151
:10077000AC01C701B6010E94EF2D6B017C01CF5B7C
:10078000DE4F88809980AA80BB80C154D140181464
:1007900019041A041B040CF05AC0D301C2010197BA
:1007A000A109B109FC01EE0FFF1FEE0FFF1F71EF52
:1007B000A72EB12CAC0EBD1EEA0DFB1D80819181D0
:1007C000A281B38128E130E028193909AC01BD01CB
:1007D000022E04C075956795579547950A94D2F7F0
:1007E000C75BDE4F88809980AA80BB80C954D14006
:1007F000840E951EA61EB71EC75BDE4F88829982A7
:10080000AA82BB82C954D14004C0440F551F661F41
:10081000771F2A95D2F7841B950BA60BB70B808305
:100820009183A283B38327E130E0CF5BDE4FA880C2
:10083000B980C154D1402A193B094C015D0104C063
:10084000B594A794979487942A95D2F728C0CF5B44
:10085000DE4F88809980AA80BB80C154D14089280E
:100860008A288B2891F5D301C2010197A109B1090A
:10087000880F991F880F991FE1EFF0E0EC0FFD1F23
:10088000E80FF91F80819181A281B3814C015D0144
:1008900057E1B594A794979487945A95D1F7CB5B79
:1008A000DE4F88829982AA82BB82C554D140CB5B3D
:1008B000DE4F88809980AA80BB80C554D14018142F
:1008C00019041A041B04FCF0E2C020E030E040E010
:1008D0005FE30E94302E87FF09C0CB5BDE4F18829A
:1008E00019821A821B82C554D140D1C032E0832EB6
:1008F000912CA12CB12CCB5BDE4F88829982AA82ED
:10090000BB82C554D140C75BDE4F288139814A8103
:100910005B81C954D1402F5F3F4F4F4F5F4FC75B43
:10092000DE4F288339834A835B83C954D14080E0FA
:1009300090E0DC01812C912C540184159505A605CD
:10094000B705ACF5F1014081518162817381811459
:100950009104A104B10481F44115510561057105AB
:10096000F9F0812C912C5401B394841A950AA60AAB
:10097000B70AB501A4010CC088248A94982CA82C2D
:10098000B12C841A950AA60AB70AB501A401F1018F
:100990004083518362837383812C912C540183940F
:1009A0000196A11DB11DF4E02F0E311CC6CFCF5B07
:1009B000DE4F288139814A815B81C154D1401216B2
:1009C000130614061506CCF52130310541055105F5
:1009D000D9F0223031054105510579F5D301C20125
:1009E0000197A109B109880F991F880F991FE1EF9D
:1009F000F0E0EC0FFD1FE80FF91F4081518162818B
:100A000073816F73772715C0D301C2010197A109C4
:100A1000B109880F991F880F991FE1EFF0E0EC0FE3
:100A2000FD1FE80FF91F40815181628173816F774B
:100A300077274083518362837383CB5BDE4F48818A
:100A400059816A817B81C554D1404230510561058D
:100A50007105E9F4A701960160E070E080E89FE38A
:100A60000E94EF2D6B017C0189288A288B2879F060
:100A7000A80160E070E080E89FE30E9413289B01DA
:100A8000AC01C701B6010E94EF2D6B017C0120E093
:100A900030E0A901C701B6010E94352E8111CFC1F6
:100AA0007301620151E0C51AD108E108F108B301F0
:100AB000A20120E030E080E090E0DC0141505109EB
:100AC00061097109CB5ADE4F88809980AA80BB806A
:100AD000C555D140481559056A057B05D4F0C15A62
:100AE000DE4FE881F981CF55D140E20FF31F11EFBE
:100AF000812E912C8C0E9D1EE80DF91D8080918019
:100B0000A280B38088299929AA29BB2924503109B8
:100B1000D5CF892B8A2B8B2B09F046C180E090E042
:100B200041E050E060E070E00497C459DE4FE88196
:100B3000F981CC56D140E80FF91F21EFA22EB12C3C
:100B4000AC0EBD1EEA0DFB1D048115812681378187
:100B5000012B022B032B29F44F5F5F4F6F4F7F4F09
:100B6000E3CF530142010FEF801A900AA00AB00AA6
:100B7000C75ADE4FC880D980EA80FB80C955D14072
:100B8000C80CD91CEA1CFB1CCC0CDD1CCC0CDD1CDD
:100B9000C601DD0CAA0B8C012A2F00521F4F2F4FCC
:100BA0006801E22EC259DE4F88819981AA81BB81FA
:100BB000CE56D140880D991DAA1DBB1D8C01000F7A
:100BC000111F000F111FC659DE4F19830883CA5623
:100BD000D1408401000F111F000F111FC959DE4FB2
:100BE00019830883C756D140212C312CD301C2016F
:100BF000840F951FA61FB71FC15ADE4F88839983A4
:100C0000AA83BB83CF55D140C15ADE4F08811981D9
:100C10002A813B81CF55D140081519052A053B058E
:100C20000CF4BFC0C659DE4F08811981CA56D140A5
:100C3000020D131DC35BDE4F19830883CD54D140D1
:100C400001EA10E00C0F1D1FC35BDE4F28813981C4
:100C5000CD54D140020F131FF6015E2D0E94A42D2A
:100C60000E947C29D8016D937D938D939C9313975B
:100C7000CB59DE4FF880C556D140CB5BDE4FF882B2
:100C8000C554D140C759DE4FF880C956D140CA5B20
:100C9000DE4FF882C654D140C75BDE4F18821982FE
:100CA0001A821B82C954D14000E010E0412C512C23
:100CB0003201C75BDE4F488159816A817B81C9540B
:100CC000D140CF5ADE4F88819981AA81BB81C1551D
:100CD000D14084179507A607B7070CF443C0C35B40
:100CE000DE4FE881F981CD54D140E00FF11F21EAB8
:100CF00030E02C0F3D1FE20FF31FCB5BDE4FA881CE
:100D0000B981C554D1402D913D914D915D91CB5B01
:100D1000DE4FB983A883C554D1406081718182813F
:100D200093810E943E2E9B01AC01C301B2010E943F
:100D3000F02D2B013C01C75BDE4F288139814A81B0
:100D40005B81C954D1402F5F3F4F4F4F5F4FC75B0F
:100D5000DE4F288339834A835B83C954D1400450D2
:100D60001109A7CFC959DE4FE881F981C756D14093
:100D7000E20DF31DA1E0B0E0AC0FBD1FEA0FFB1FB9
:100D80004082518262827382BFEF8B1A9B0AAB0A48
:100D9000BB0AE4E02E0E311CF4E0CF0ED11CE11CA6
:100DA00033CF2801390122CCCF5BDE4F2881398136
:100DB0004A815B81C154D14028513109410951090F
:100DC000CF5BDE4F288339834A835B83C154D14094
:100DD000C601880F991F880F991F2601370120E04F
:100DE00030E024503109F901E80FF91F61EF70E09C
:100DF0006C0F7D1FE60FF71F448155816681778157
:100E0000452B462B472B09F09EC041E0441A510860
:100E100061087108CF5BDE4F488159816A817B810F
:100E2000C154D1404851510961097109CF5BDE4F6E
:100E3000488359836A837B83C154D140D2CFCF5B2F
:100E4000DE4F48815981C154D14051954195510996
:100E5000C701B6010E9413286B017C0120E030E03D
:100E600040E85BE40E94302E87FD57C020E030E070
:100E700040E853E3C701B6010E943E2E0E94F62DC2
:100E80000E947C294B015C0101EF10E00C0F1D1F3B
:100E9000C35BDE4F88819981CD54D140080F191F63
:100EA00020E030E040E85BE4C501B4010E943E2E42
:100EB0009B01AC01C701B6010E94EF2D0E94F62DE7
:100EC000D8016D937D938D939C931397BFEF4B1A2D
:100ED0005B0A6B0A7B0ACF5BDE4F088119812A818E
:100EE0003B81C154D140085E1F4F2F4F3F4FCF5B16
:100EF000DE4F088319832A833B83C154D14082018A
:100F0000000F111F000F111F21EF30E02C0F3D1FAC
:100F1000020F131FC501B4010EC001EF10E00C0F4A
:100F20001D1FC35BDE4F88809980CD54D140080DD2
:100F3000191DC701B6010E94F62DD8016D937D934E
:100F40008D939C931397CF5BDE4F48815981C15499
:100F5000D14060E070E080E89FE30E9413284B01DD
:100F60005C01C15ADE4F59824882CF55D1401201EF
:100F7000220C331C220C331C7301620100E010E0D0
:100F8000F7FC3CC0C801820D931DE1E0F0E0EC0FDE
:100F9000FD1FE80FF91FCF5BDE4FF983E883C154D3
:100FA000D140E1EFF0E0EC0FFD1FE80FF91F608189
:100FB0007181828193810E947C29A50194010E9404
:100FC0003E2ECF5BDE4FA881B981C154D1406D93D5
:100FD0007D938D939C93139720E030E040E853E39A
:100FE000C501B4010E943E2E4B015C01B1E0CB1A59
:100FF000D108E108F10804501109C2CF8E010F5A3F
:101000001F4FC35BDE4F19830883CD54D140CF5BA4
:10101000DE4F188219821A821B82C154D140CF5AE6
:10102000DE4F19821882C155D140D301C201CF5B76
:10103000DE4F88809980AA80BB80C154D140881936
:101040009909AA09BB09B7FDB2C078EE872E71E0F5
:10105000972E70E0A72E6101CF5ADE4FE880F9800D
:10106000C155D140CE18DF08CB59DE4FD982C88296
:10107000C556D14000E010E0C75ADE4F18821982F1
:101080001A821B82C955D140C12CD12C7601CB5A72
:10109000DE4F688179818A819B81C555D1406C156D
:1010A0007D058E059F050CF447C0CF5BDE4F888120
:1010B0009981AA81BB81C154D1408C159D05AE0593
:1010C000BF05D4F1CB59DE4FA881B981C556D140B7
:1010D000A00FB11F21E030E02C0F3D1FA20FB31F66
:1010E000F4015A2D0E94A42D9B01AC016D917D91BC
:1010F0008D919C910E943E2E9B01AC01C75ADE4F00
:10110000688179818A819B81C955D1400E94F02DE7
:10111000C75ADE4F688379838A839B83C955D14040
:101120003FEFC31AD30AE30AF30A44E0840E911C8A
:10113000A11C0C5F1F4FABCFC35BDE4FA881B981F1
:10114000CD54D140C75ADE4F88809980AA80BB8099
:10115000C955D1408D929D92AD92BD92C35BDE4F39
:10116000B983A883CD54D140CF5ADE4F088119816D
:10117000C155D1400C5F1F4FCF5ADE4F19830883F2
:10118000C155D140CF5BDE4F288139814A815B81D7
:10119000C154D1402F5F3F4F4F4F5F4FCF5BDE4F6A
:1011A000288339834A835B83C154D1403ECFCD59D4
:1011B000DE4F08811981C356D1400330110574F404
:1011C000013011050CF048C00115110509F041C2AC
:1011D00000E010E060E070E0CB0146C0CD59DE4F8A
:1011E00008811981C356D1400330110509F031C27D
:1011F00051E5852E912C8C0E9D1E820C931CCF5B8D
:10120000DE4F99828882C154D14014012CEFC15A1B
:10121000DE4F08811981CF55D14020034001219F25
:10122000900C1124CD59DE4F99828882C356D1404B
:10123000D301C2010197A109B1095C01AA0CBB1C31
:10124000AA0CBB1CC75ADE4FB982A882C955D1402F
:10125000810173016201B0C07301620100E010E01E
:1012600060E070E0CB0135C077FC18C0F101E00F01
:10127000F11F41E5C42ED12CCC0EDD1EEC0DFD1D61
:1012800020813181428153810E94F02D21E0421A58
:1012900051086108710804501109E6CFCB5BDE4F9D
:1012A00088809980AA80BB80C554D140DC01CB01E5
:1012B00081149104A104B10409F0B058C35ADE4F5F
:1012C000E881F981CD55D14080839183A283B38396
:1012D000C0C1F7FC18C0F101E00FF11F31E5832E0A
:1012E000912C8C0E9D1EE80DF91D208131814281CB
:1012F00053810E94F02D21E0C21AD108E108F108C3
:1013000004501109E6CFCB5BDE4F88809980AA801C
:10131000BB80C554D1408B019C0189288A288B2829
:1013200009F03058C35ADE4FA881B981CD55D1405C
:101330000D931D932D933C9313979B01AC018E014C
:101340000F5A1F4FF80161917191819191918F0115
:101350000E94EF2DC12CD12C7601C3944C145D0456
:101360006E047F0474F0D8012D913D914D915D91F3
:101370008D010E94F02DBFEFCB1ADB0AEB0AFB0AAE
:10138000EDCFCB5BDE4F88809980AA80BB80C554AF
:10139000D140DC01CB0181149104A104B10409F016
:1013A000B058C35ADE4FE881F981CD55D1408483CE
:1013B0009583A683B7834DC11C141D041E041F040E
:1013C0000CF06DC0F1E0CF1AD108E108F108CD5959
:1013D000DE4F88819981C356D140800F911FC75A33
:1013E000DE4F88809980C955D140880E991ECF5A0A
:1013F000DE4F99828882C155D140D4018D909D9055
:10140000AD90BC90CB5ADE4F88829982AA82BB8273
:10141000C555D140F80180809180A280B380A5019C
:101420009401CB5ADE4F688179818A819B81C555B1
:10143000D1400E94F02DC35BDE4F688379838A839D
:101440009B83CD54D1409B01AC01CB5ADE4F6881C8
:1014500079818A819B81C555D1400E94EF2DA501DC
:1014600094010E94F02DD8016D937D938D939C93F0
:101470001397C35BDE4F88809980AA80BB80CD54D0
:10148000D140CF5ADE4FA881B981C155D1408D924C
:101490009D92AD92BC921397045011098DCF7301A8
:1014A0006201E2E0CE16D104E104F1040CF463C061
:1014B000B1E0CB1AD108E108F108CD59DE4F08811F
:1014C0001981C356D140020D131DC75ADE4F8880C3
:1014D0009980C955D140080D191DD8018D909D9056
:1014E000AD90BC90CB5ADE4F88829982AA82BB8293
:1014F000C555D140F10180809180A280B380A501C3
:101500009401CB5ADE4F688179818A819B81C555D0
:10151000D1400E94F02DCF5ADE4F688379838A83B1
:101520009B83C155D1409B01AC01CB5ADE4F6881F2
:1015300079818A819B81C555D1400E94EF2DA501FB
:1015400094010E94F02DD1016D937D938D939C9316
:101550001397CF5ADE4F88809980AA80BB80C155EF
:10156000D140D8018D929D92AD92BC921397B4E078
:101570002B1A310896CF00E010E060E070E0CB015C
:1015800022E04216510461047104B4F0CF5BDE4FD7
:10159000E881F981C154D140E00FF11F20813181F0
:1015A000428153810E94F02DF1E04F1A51086108E9
:1015B000710804501109E4CFCB5BDE4F888099801D
:1015C000AA80BB80C554D14065960CAD1DAD2EAD33
:1015D0003FAD659781149104A104B104E9F4C35AA5
:1015E000DE4FA881B981CD55D1400D931D932D9328
:1015F0003C93139769960CAD1DAD2EAD3FAD699729
:10160000FD01048315832683378318966D937D939C
:101610008D939C931B971DC03058C35ADE4FE881B1
:10162000F981CD55D140008311832283338369969C
:101630000CAD1DAD2EAD3FAD6997305804831583B9
:1016400026833783DC01CB01B05880879187A2873E
:10165000B387C75BDE4F88819981C954D1408770B9
:0C1660009927CF58DE4FE2E10C94752C66
:10166C00CF93DF93CDB7DEB7A5970FB6F894DEBF57
:10167C000FBECDBF1F82188619861A861B861C8644
:10168C001D861E861F86188A198A1A8A1B8A1D8A2D
:10169C001C8A81E08E8B87E08F8BBE016A5E7F4F48
:1016AC0080E80E94B7290E943D2C0E94C02C0E9409
:1016BC00682D0E94B02D0E94902C41E067E080E0E4
:1016CC000E94ED2540E067E080E00E9460266B8977
:1016DC0070E0660F771F660F771F660F771F5B0131
:1016EC0024E0A20EB11C80E090E00E94122E688FC4
:1016FC00798F8A8F9B8FB50180E090E00E94122E2B
:10170C006C8F7D8F8E8F9F8F31E03DA381E08CA3FA
:10171C0091E09BA321E02AA339A388A3412C512C4F
:10172C00612C312C212C722C9E012D5F3F4FAE0170
:10173C004E5F5F4FBE016F5F7F4F80E00E94CE2AED
:10174C000E949B2A80FF13C192E323E031E0915069
:10175C0020403040E1F700C000C002C00E949B2A2C
:10176C0080FDFCCF88248394A12C0E949B2AB82E48
:10177C0080FF10C082E393E021E081509040204034
:10178C00E1F700C000C003C00E949B2AB82EB0FC39
:10179C00FBCF812CB1FE15C032E383E091E03150D8
:1017AC0080409040E1F700C000C003C00E949B2A1B
:1017BC00B82EB1FCFBCF28E0A21611F0A39401C007
:1017CC00A12CB2FE16C032E383E091E03150804090
:1017DC009040E1F700C000C003C00E949B2AB82EC5
:1017EC00B2FCFBCFAA2011F0AA9403C06894AA24DF
:1017FC00A3F8B3FE24C022E333E081E02150304053
:10180C008040E1F700C000C003C00E949B2AB82EA4
:10181C00B3FCFBCF9E012D5E3F4F6901CE010296BA
:10182C007C018E010D5F1F4F2E503109AE014A5FB6
:10183C005F4FBE016C5E7F4F8A2D0E94B91BB4FEB8
:10184C0024C092E323E031E0915020403040E1F796
:10185C0000C000C003C00E949B2AB82EB4FCFBCF72
:10186C00CE0143966C019E012E5F3F4F79018E0194
:10187C000D5F1F4F2D5F3F4FAE014A5F5F4FBE01A3
:10188C006C5E7F4F8A2D0E94A71C2C893D89CB88CA
:10189C00EA800B814E816D818A2D0E943B11811053
:1018AC0064CF2C893D894E816D818C810E94FE28EC
:1018BC0049816A818B810E94E22B6B8970E0660FF3
:1018CC00771F660F771F660F771F5B0134E0A30E3F
:1018DC00B11C80E090E00E94122E688F798F8A8F65
:1018EC009B8FB50180E090E00E94122E6C8F7D8F53
:1018FC008E8F9F8FCE010A969F938F9306969F9300
:10190C008F9307979F938F9306969F938F93079729
:10191C009F938F9306969F938F9307979F938F9385
:10192C0006969F938F9301979F938F9306969F9301
:10193C008F9307974C019E012F5E3F4F5901C88C26
:10194C00D98CEA8CFB8C0C8D1D8D2E8D3F8D4D8191
:10195C006E818C899D890E94731E40E067E080E057
:10196C000E9460260FB6F894DEBF0FBECDBF2B8051
:10197C00621409F44BC08E010C5E1F4F9E012A5F4E
:10198C003F4FAE014B5F5F4FBE016C5F7F4F83E0FB
:10199C000E943D298C810E949923CE010A969F9327
:1019AC008F9306969F938F9307979F938F9306968B
:1019BC009F938F9307979F938F9306969F938F93E5
:1019CC0007979F938F9306969F938F9301979F935F
:1019DC008F9306969F938F939E01255F3F4F4901EE
:1019EC0001975C01C88CD98CEA8CFB8C0C8D1D8DFD
:1019FC002E8D3F8D4D816E818C899D890E94731E29
:101A0C000FB6F894DEBF0FBECDBF622CBA803B146C
:101A1C00B1F03A85988989858F84A884CE84EF802B
:101A2C000D852B8549893F939F938F936B2D8B81CC
:101A3C000E94D518482E0F900F900F903B2C0981C7
:101A4C00701609F47EC00E949E2B582E41100E94E5
:101A5C002B2E8A819B8589130DC02B819989291383
:101A6C0009C00E942B2E81E038A1311180E088A39F
:101A7C00702E67C09C8589130DC02B819A89291300
:101A8C0009C00E942B2E81E099A1911180E089A3BD
:101A9C00702E57C09F8189130DC02B819D852913F2
:101AAC0009C00E942B2E81E02AA1211180E08AA37B
:101ABC00702E47C0988589130DC02B819E852913E4
:101ACC0009C00E942B2E81E03BA1311180E08BA339
:101ADC00702E37C0998589130DC02B819F852913D2
:101AEC0009C00E942B2E81E09CA1911180E08CA357
:101AFC00702E27C09A8589130DC09B8188899813F5
:101B0C0015C00E942B2E81E02DA1211180E08DA308
:101B1C00702E17C0702E31E03DA381E08CA391E0B4
:101B2C009BA321E02AA339A388A30BC0702E91E0BC
:101B3C009DA321E02CA331E03BA381E08AA399A3D0
:101B4C0028A38A858F9388898F9389858F938F8516
:101B5C008F9388858F938E858F938F818F938D85AF
:101B6C008F938C858F938A88AB84C988EDA00CA148
:101B7C002BA14AA169A188A10E94DA0D4C895D892B
:101B8C006E818D810E94D0196A818B810E946C2894
:101B9C008B890E942C2B852D0E94532B0FB6F89409
:081BAC00DEBF0FBECDBFC0CDAE
:101BB4008F929F92AF92BF92CF92DF92EF92FF9259
:101BC4000F931F93CF93DF93CDB7DEB7962ED42E0A
:101BD400F22E882309F441C01DECC19EB12C1124BE
:101BE400B694B694B69460E08B2D0E947A258CEC62
:101BF4009AE00197F1F700C00000BB0C8B2D880F11
:101C0400880FB80E61E08C2D8B190E947A258CEC1C
:101C14009AE00197F1F700C00000A19E112D112454
:101C240016951695169562E0812F0E947A258CEC04
:101C34009AE00197F1F700C00000110F812F880F7F
:101C4400880F180F63E08A2D811B0E947A258CEC83
:101C54009AE00197F1F700C00000992009F445C00B
:101C64001DEC819E812D112464E0869586958695D0
:101C74000E947A258CEC9AE00197F1F700C00000ED
:101C840089E2889E812D112482958F7065E094E607
:101C9400899F80181124882D0E947A258CEC9AE063
:101CA4000197F1F700C000009F85919F112D112429
:101CB40016951695169566E0812F0E947A258CEC70
:101CC4009AE00197F1F700C00000110F812F880FEF
:101CD400880F180F67E08F85811B0E947A258CEC92
:101CE4009AE00197F1F700C00000DD2009F443C039
:101CF4001DEC9889919FD12C1124D694D694D69416
:101D040068E08D2D0E947A258CEC9AE00197F1F71A
:101D140000C00000DD0C8D2D880F880FD80E69E0FF
:101D240088898D190E947A258CEC9AE00197F1F745
:101D340000C000009989919F112D112416951695C4
:101D440016956AE0812F0E947A258CEC9AE001971F
:101D5400F1F700C00000110F812F880F880F180FB2
:101D64006BE08989811B0E947A258CEC9AE00197AB
:101D7400F1F700C00000FF2009F443C01DEC9A896C
:101D8400919FF12C1124F694F694F6946CE08F2D27
:101D94000E947A258CEC9AE00197F1F700C00000CC
:101DA400FF0C8F2D880F880FF80E6DE08A898F192C
:101DB4000E947A258CEC9AE00197F1F700C00000AC
:101DC4009B89919F112D11241695169516956EE0F9
:101DD400812F0E947A258CEC9AE00197F1F700C0DC
:101DE4000000110F812F880F880F180F6FE08B8967
:101DF400811B0E947A258CEC9AE00197F1F700C0D0
:101E04000000002309F443C01DEC9C89919F012D1F
:101E1400112406950695069560E1802F0E947A2587
:101E24008CEC9AE00197F1F700C00000000F802FBE
:101E3400880F880F080F61E18C89801B0E947A2526
:101E44008CEC9AE00197F1F700C000009D89919F06
:101E5400112D112416951695169562E1812F0E9475
:101E64007A258CEC9AE00197F1F700C00000110F7D
:101E7400812F880F880F180F63E18D89811B0E94C1
:101E84007A258CEC9AE00197F1F700C00000EE206F
:101E940009F443C01DEC9E89919F012D11240695E0
:101EA4000695069564E1802F0E947A258CEC9AE0D1
:101EB4000197F1F700C00000000F802F880F880FF2
:101EC400080F65E18E89801B0E947A258CEC9AE0CC
:101ED4000197F1F700C000009F89919F112D1124F3
:101EE40016951695169566E1812F0E947A258CEC3D
:101EF4009AE00197F1F700C00000110F812F880FBD
:101F0400880F180F67E18F89811B0E947A258CEC5A
:101F14009AE00197F1F700C00000DF91CF911F9183
:101F24000F91FF90EF90DF90CF90BF90AF909F9074
:041F34008F900895ED
:101F38004F925F926F927F928F929F92AF92BF92D1
:101F4800CF92DF92EF92FF92CF93DF9300D000D031
:101F5800CDB7DEB76B017C01AB01BC01D701C6016F
:101F6800BF77009720E8A2072FE3B20718F1009780
:101F7800A048BF4359F477FF64C120E030E040E84F
:101F880053E06AED7FE089E490E458C181E290E093
:101F98009093650080936400A7019601C701B6017C
:101FA8000E94EF2D9B01AC0160E070E0CB010E9424
:101FB8003A2E4AC10097A1052FE3B20708F060C086
:101FC8000197A048B24348F420E030E040E853E0ED
:101FD8006AED7FE089EC9FE331C1A7019601C70153
:101FE800B6010E943E2E4B015C012BE633ED4DE01D
:101FF8005CEB0E943E2E2AEB33E14FE25DE30E9448
:10200800EF2DA50194010E943E2E25E73AEA4AE207
:102018005EE30E94F02DA50194010E943E2E2B0143
:102028003C012EEA35EE44E35FEBC501B4010E94A2
:102038003E2E20E030E040E85FE30E94F02D9B0157
:10204800AC01C301B2010E943A2EA70196010E9479
:102058003E2E9B01AC0168E671E282EA93E30E949E
:10206800EF2D9B01AC01C701B6010E94EF2D9B012A
:10207800AC016AED7FE089EC9FE30E94EF2DE4C09C
:1020880077FF5DC020E030E040E85FE3C701B601BC
:102098000E94F02D20E030E040E05FE30E943E2EF9
:1020A8006B017C010E94B1164B015C012BE633EDFC
:1020B8004DE05CEBC701B6010E943E2E2AEB33E1EE
:1020C8004FE25DE30E94EF2DA70196010E943E2E8C
:1020D80025E73AEA4AE25EE30E94F02DA70196015D
:1020E8000E943E2E2B013C012EEA35EE44E35FEBC5
:1020F800C701B6010E943E2E20E030E040E85FE3D1
:102108000E94F02D9B01AC01C301B2010E943A2E3E
:10211800A50194010E943E2E28E631E242EA53E3EB
:102128000E94EF2DA50194010E94F02D9B01AC01A6
:102138006AED7FE089EC9FE30E94EF2D7DC0A70147
:10214800960160E070E080E89FE30E94EF2D20E0B8
:1021580030E040E05FE30E943E2E6B017C010E946C
:10216800B11669837A838B839C8389809A80AB803C
:10217800BC80882480EF98222BE633ED4DE05CEBA1
:10218800C701B6010E943E2E2AEB33E14FE25DE320
:102198000E94EF2DA70196010E943E2E25E73AEAFC
:1021A8004AE25EE30E94F02DA70196010E943E2EAE
:1021B8002B013C012EEA35EE44E35FEBC701B60183
:1021C8000E943E2E20E030E040E85FE30E94F02DC0
:1021D8009B01AC01C301B2010E943A2E29813A81C8
:1021E8004B815C810E943E2E2B013C01A50194018C
:1021F800C501B4010E943E2E9B01AC01C701B60186
:102208000E94EF2D6B017C01A501940169817A81FF
:102218008B819C810E94F02D9B01AC01C701B60106
:102228000E943A2E9B01AC01C301B2010E94F02D1D
:10223800A50194010E94F02D9B01AC010E94F02D94
:1022480003C060E070E0CB010F900F900F900F90EB
:10225800DF91CF91FF90EF90DF90CF90BF90AF903C
:0E2268009F908F907F906F905F904F900895A1
:10227600CF92DF92EF92FF920F931F93CF93DF934C
:10228600C82FF62E142F69018DEC689F812D11241D
:1022960068E18695869586950E947A2540E067E0F6
:1022A60080E00E946026C53029F441E067E080E0C6
:1022B6000E9460268CEC9AE00197F1F700C00000BE
:1022C600DDECFD9E912D1124969596959695990F88
:1022D600892F880F880F980F69E18F2D891B0E941F
:1022E6007A258CEC9AE00197F1F700C000001D9F5B
:1022F600812D11246AE18695869586950E947A2518
:1023060040E067E080E00E946026C43029F441E0A6
:1023160067E080E00E9460268CEC9AE00197F1F776
:1023260000C000009DEC199F912D1124969596955D
:102336009695990F892F880F880F980F6BE1812F3B
:10234600891B0E947A258CEC9AE00197F1F700C070
:10235600000096013695279536952795369527954B
:10236600A5ECB0E20E94882DAC01529542954F70C3
:1023760045275F7045279A01ADECBCEC0E94882D7D
:102386009695879596958795969587959C01220FA4
:10239600331F880F991F880F991F880F991F820F67
:1023A600931F6CE1242F281B822F0E947A2540E080
:1023B60067E080E00E946026C33029F441E067E0D0
:1023C60080E00E9460268CEC9AE00197F1F700C04D
:1023D600000096013695279536952795ABE7B4E12B
:1023E6000E94882DAC01569547959A01ADECBCEC40
:1023F6000E94882D969587959695879596958795AB
:102406009C01220F331F880F991F880F991F880F71
:10241600991F820F931F6DE1242F281B822F0E9484
:102426007A2540E067E080E00E946026C23029F409
:1024360041E067E080E00E9460268CEC9AE001971C
:10244600F1F700C000009601ADECBCEC0E94882DAF
:10245600AC015695479556954795569547959A01D9
:102466000E94882D9695879596958795969587953A
:102476009C01220F331F880F991F880F991F880F01
:10248600991F820F931F6EE1242F281B822F0E9413
:102496007A2540E067E080E00E946026C13029F49A
:1024A60041E067E080E00E9460268CEC9AE00197AC
:1024B600F1F700C000009601ADECBCEC0E94882D3F
:1024C6009695879596958795969587959C01220F63
:1024D600331F880F991F880F991F880F991F820F26
:1024E600931F6FE12C2D281B822F0E947A2540E036
:1024F60067E080E00E946026C11105C041E067E008
:1025060080E00E9460268CEC9AE00197F1F700C00B
:1025160000008DEC089F812D112460E2869586953A
:1025260086950E947A2540E067E080E00E9460265A
:10253600C73029F441E067E080E00E9460268CEC19
:102546009AE00197F1F700C00000CDEC0C9F912DA9
:102556001124969596959695990F892F880F880F31
:10256600980F61E2802F891B0E947A258CEC9AE0F5
:102576000197F1F700C00000EC9E812D112462E264
:102586008695869586950E947A2540E067E080E0EC
:102596000E946026DF91CF911F910F91FF90EF90DF
:0625A600DF90CF900895C4
:1025AC00ABE0B0E0ECEDF2E10C945B2C6B017C0148
:1025BC009B01AC01222757FD239533274427552730
:1025CC002D833E834F83588746015701E894B7F813
:1025DC008114910430E8A3063CE4B306A0F041E07A
:1025EC008416910440E8A4064FE7B40608F04AC1EB
:1025FC0020E030E040E853E06AED7FE089EC9FE3B7
:10260C000E94F02D35C18114910430EEA3063EE3F7
:10261C00B306D0F48114910440E8A40649E3B4064F
:10262C0008F09CC08114910450E8A506B10408F090
:10263C0029C1A7019601C701B6010E943E2E6983EC
:10264C007A838B839C831EC1C701B6010E94472EDF
:10265C006B017C018114910488E9A8068FE3B8060C
:10266C0008F045C08114910490E3A9069FE3B906D4
:10267C0008F5A7019601C701B6010E94F02D20E0D4
:10268C0030E040E85FE30E94EF2D4B015C0120E05D
:10269C0030E040E050E4C701B6010E94F02D9B01F0
:1026AC00AC01C501B4010E943A2E6B017C0100E023
:1026BC0010E056C020E030E040E85FE3C701B6010F
:1026CC000E94EF2D4B015C0120E030E040E85FE31D
:1026DC00C701B6010E94F02D9B01AC01C501B401EC
:1026EC000E943A2E6B017C0101E010E039C081148C
:1026FC009104ACE1AA06A0E4BA0618F520E030E09B
:10270C0040EC5FE3C701B6010E94EF2D4B015C0169
:10271C0020E030E040EC5FE3C701B6010E943E2EA2
:10272C0020E030E040E85FE30E94F02D9B01AC011B
:10273C00C501B4010E943A2E6B017C0102E010E04D
:10274C000FC0A701960160E070E080E89FEB0E944B
:10275C003A2E6B017C0103E010E002C00FEF1FEF7B
:10276C00A7019601C701B6010E943E2E2B013C0128
:10277C009B01AC010E943E2E4B015C0125E23CEA20
:10278C004CE75DE30E943E2E2DE035EF41E15EE328
:10279C000E94F02DA50194010E943E2E29EA3AEAEE
:1027AC004AEA5EE30E94F02DA30192010E943E2EA4
:1027BC002B013C0127E432E14AED5DEBC501B4018C
:1027CC000E943E2E28E93AEC4CE45EE30E94EF2D89
:1027DC00A50194010E943E2E9B01AC010F3FBFEF5F
:1027EC001B0779F4C301B2010E94F02DA7019601D9
:1027FC000E943E2E9B01AC01C701B6010E94EF2D39
:10280C0043C0000F111F000F111F4801110FAA0820
:10281C00AA2DC401885E9D4FAF4F89879A87AB87DD
:10282C00C301B2010E94F02DA70196010E943E2E19
:10283C002B013C01AA2DC401885F9D4FAF4FFC01B9
:10284C005A2F0E94A42D9B01AC01C301B2010E941E
:10285C00EF2DA70196010E94EF2D8B019C01E985BC
:10286C00FA855B850E94A42DA90198010E94EF2D89
:10287C002D813E814F815885232B242B252B21F034
:10288C00905802C0C701B6012B96E0E10C94772C4E
:10289C00ACE0B0E0E4E5F4E10C945B2C49015A01A6
:1028AC0069017A015F772D833E834F8358872130EE
:1028BC00310540485F4760F49B01AC015F77298785
:1028CC003A874B875C872130310540485F4738F0A9
:1028DC009B01AC01C501B4010E94F02D1BC18114F8
:1028EC009104B0E8AB06BFE3BB0619F40E94D61204
:1028FC0011C1750164012EE1F694E794D794C79445
:10290C002A95D1F7970186010270112722273327C8
:10291C002B013C01442477FC4394552466247724F2
:10292C0073016201C02AD12AE22AF32A29853A8549
:10293C004B855C85232B242B252B79F432E0C31695
:10294C00D104E104F10409F4D3C043E0C416D1046A
:10295C00E104F10409F0DEC066C04D805E806F803A
:10296C007884411451046104710409F475C02D81FB
:10297C003E814F8158852115310540485F4709F04C
:10298C0057C049845A846B847C844114510420E8D8
:10299C0062062FE7720671F532E0C316D104E1042A
:1029AC00F10491F043E0C416D104E104F10489F080
:1029BC0051E0C516D104E104F10409F09EC06BEDA1
:1029CC007FE089E49FEBA6C020E030E040E450E4D7
:1029DC0004C020E030E040E450EC6BED7FE089E493
:1029EC0090E40E943E2E20E030E040E85EE30E943E
:1029FC003E2E90C082E0C816D104E104F10409F423
:102A0C0077C093E0C916D104E104F10461F0A1E0B0
:102A1C00CA16D104E104F10409F074C060E070E05E
:102A2C0080E090E877C06BED7FE089E490EC72C0B9
:102A3C004D805E806F807884B3EF7B1A29853A8550
:102A4C004B855C85421653066406750628F02115E5
:102A5C00310540485F4739F4C0FE58C06BED7FE04C
:102A6C0089EC9FEB57C0C1FE0EC009851A852B85DA
:102A7C003C85335F4D805E806F807884041515052E
:102A8C002605370548F0A50194010E943A2E0E94B4
:102A9C00472E0E94D61203C060E070E0CB0121E00B
:102AAC00C216D104E104F104A1F0A0F142E0C41675
:102ABC00D104E104F10479F42EE23DEB4BEB53E34A
:102ACC000E94F02D9B01AC016BED7FE089E490E45A
:102ADC000CC090581FC02EE23DEB4BEB53E30E9411
:102AEC00F02D2BED3FE049E450E40E94EF2D12C095
:102AFC006BED7FE089E490E40DC06BED7FE089E441
:102B0C009FE308C060E070E0CB0104C06BED7FE098
:0C2B1C0089EC9FE32C96E0E10C94772CF0
:102B28004F925F926F927F928F929F92AF92BF92D5
:102B3800CF92DF92EF92FF920F931F93CF93DF9381
:102B4800CDB7DEB72A970FB6F894DEBF0FBECDBF5C
:102B58008A013A87298724E631EA45E15AE40E9446
:102B6800EF2D6B017C012DE430E54CE75FE30E941B
:102B78003E2E26EB33EC42EB53E40E94F02D4B0142
:102B88005C0123E633E54CE75FE3C701B6010E9429
:102B98003E2E21EC3AE34CE853E40E94F02D2B0141
:102BA8003C0123E33AEF4EE85CE3C501B4010E941F
:102BB8003E2E0E948E1D28EB3EE145EF5FE30E940A
:102BC8003E2E9B01AC01C301B2010E94F02D698326
:102BD8007A838B839C83A5019401C501B4010E946B
:102BE800F02D23E33AEF4EE85CE30E943E2E0E946C
:102BF8008E1D2AE037ED43EA5CE30E943E2E9B01DE
:102C0800AC0169817A818B819C810E94F02D4B01F6
:102C18005C0126E036E441EC54E3C701B6010E94AA
:102C28003E2E9B01AC0162E173E88BEB91E40E94BC
:102C3800EF2D6B017C0123E33AEF4EE85CE3C5011D
:102C4800B4010E943E2E4B015C010E949C216983C5
:102C58007A838B839C8323E33AEF4EE85CE3C701D6
:102C6800B6010E943E2E6B017C010E949C216D835F
:102C78007E838F839887C501B4010E948E1D4B0106
:102C88005C019B01AC016D817E818F8198850E94DA
:102C98003E2E29813A814B815C810E944E1424EE9C
:102CA8003EE245E652E40E943E2E20E030E040E756
:102CB80051E40E943A2E69837A838B839C83C701EF
:102CC800B6010E948E1D9B01AC01C501B4010E9492
:102CD8003E2E0E94C61724EE3EE245E652E40E94CC
:102CE8003E2EE985FA85608371838283938320E091
:102CF80030E040E751E4C301B2010E943A2E298135
:102D08003A814B815C810E94EF2D6B017C010E940E
:102D1800F62D0E947A299B01AC01C701B6010E94D9
:102D2800EF2DF80160837183828393832A960FB60F
:102D3800F894DEBF0FBECDBFDF91CF911F910F91E9
:102D4800FF90EF90DF90CF90BF90AF909F908F90C3
:0A2D58007F906F905F904F900895F8
:102D62004F925F926F927F928F929F92AF92BF9299
:102D7200CF92DF92EF92FF920F931F936B017C0130
:102D8200DC01CB01B701A6014427552760787F7784
:102D92004115510560487F4759F4A7019601C701C3
:102DA200B6010E943E2EA70196010E94F02D1AC084
:102DB200181619061A061B06D4F0892B8A2B8B2BA0
:102DC20009F4CCC081E290E09093650080936400A6
:102DD200A7019601C701B6010E94EF2D9B01AC012C
:102DE2000E943A2E562F472F382F292FBBC067E15A
:102DF200F594E794D794C7946A95D1F7C114D10496
:102E0200E104F104E1F4C12CD12C7601A7FD0AC042
:102E1200880F991FAA1FBB1F2FEFC21AD20AE20AFC
:102E2200F20AF4CF21E0C21AD108E108F108F094C5
:102E3200E094D094C094C11CD11CE11CF11C2FE77A
:102E4200C21AD108E108F108AF77BB27A068C0FE1B
:102E520004C0880F991FAA1FBB1FF594E794D7944B
:102E6200C794880F991FAA1FBB1FE9E1F0E040E059
:102E720050E060E071E0812C912C540100E010E000
:102E8200980128013901440E551E661E771E8415CD
:102E92009505A605B70574F093018201040F151F6D
:102EA200261F371F84199509A609B709840E951E96
:102EB200A61EB71E880F991FAA1FBB1F769567957E
:102EC200579547953197E9F6892B8A2B8B2BA1F1E0
:102ED20020E632E442EA5DE060E070E080E89FE3F1
:102EE2000E94EF2D20E030E040E85FE30E94302EA8
:102EF20087FD22C020E632E442EA5DE060E070E055
:102F020080E89FE30E94F02D20E030E040E85FE39C
:102F12000E94302E181634F482E0880E911CA11CF7
:102F2200B11C0AC0D501C40181709927AA27BB2709
:102F3200880E991EAA1EBB1ED501C401B595A79580
:102F420097958795B15C37E1CC0CDD1CEE1CFF1C1C
:102F52003A95D1F7C80ED91EEA1EFB1E5C2D4D2DE7
:102F62003E2D2F2D652F742F832F922F1F910F919E
:102F7200FF90EF90DF90CF90BF90AF909F908F9097
:0A2F82007F906F905F904F900895CC
:102F8C004F925F926F927F928F929F92AF92BF926D
:102F9C00CF92DF92EF92FF92CF93DF9300D000D0CD
:102FAC00CDB7DEB76B017C0169837A838B839C83FD
:102FBC00DC01CB01BF77009720E8A2072FE3B20713
:102FCC0028F10097A048BF4369F42BED3FE049EC92
:102FDC005FE3C701B6010E943E2E20E030E040E8DE
:102FEC0053E05FC081E290E09093650080936400B1
:102FFC00A7019601C701B6010E94EF2D9B01AC0100
:10300C0060E070E0CB010E943A2EB6C00097A1059B
:10301C004FE3B40708F048C0A058B1090097A105C8
:10302C00B94308F4A7C0A7019601C701B6010E94D5
:10303C003E2E4B015C012BE633ED4DE05CEB0E9428
:10304C003E2E2AEB33E14FE25DE30E94EF2DA5010A
:10305C0094010E943E2E25E73AEA4AE25EE30E9482
:10306C00F02DA50194010E943E2E2B013C012EEA6D
:10307C0035EE44E35FEBC501B4010E943E2E20E027
:10308C0030E040E85FE30E94F02D9B01AC01C301EE
:10309C00B2010E943A2EA70196010E943E2EA70172
:1030AC0096010E94F02D68C0C701B6010E94472E00
:1030BC009B01AC0160E070E080E89FE30E94EF2D83
:1030CC0020E030E040E05FE30E943E2E6B017C018B
:1030DC000E94B1164B015C012BE633ED4DE05CEB2D
:1030EC00C701B6010E943E2E2AEB33E14FE25DE3AD
:1030FC000E94EF2DA70196010E943E2E25E73AEA89
:10310C004AE25EE30E94F02DA70196010E943E2E3A
:10311C002B013C012EEA35EE44E35FEBC701B6010F
:10312C000E943E2E20E030E040E85FE30E94F02D4C
:10313C009B01AC01C301B2010E943A2EA50194017E
:10314C000E943E2EA50194010E94F02D9B01AC0122
:10315C000E94F02D9B01AC016BED7FE089EC9FE3AD
:10316C000E94EF2D29813A814B815C8157FF04C06D
:10317C00905802C0C701B6010F900F900F900F909E
:10318C00DF91CF91FF90EF90DF90CF90BF90AF90F9
:0E319C009F908F907F906F905F904F9008955E
:1031AA008F92AF92CF92EF92FF920F93CF93DF93CA
:1031BA00CDB7DEB7623308F440C0873109F480E046
:1031CA00841309C0462F50E030E02D5231094217CE
:1031DA00530709F4B4C080130AC0262F30E0F12C3B
:1031EA004DE2E41AF1082E153F0509F4AAC08C1124
:1031FA000AC0462F50E02A2D30E02D5231094217DD
:10320A00530709F4A0C08C110AC0462F50E02A2D9A
:10321A0030E0225331094217530709F496C09C85BE
:10322A00891395C070E02D85822F90E08D976817DD
:10323A00790709F48EC080E0A5C06D3208F445C054
:10324A00873119F091E0980F02C0982F80E084131B
:10325A0009C0462F50E030E02D523109421753077A
:10326A0009F479C080130AC0262F30E0F12C4DE210
:10327A00E41AF1082E153F0509F46FC08C110AC033
:10328A00462F50E02A2D30E02D52310942175307BC
:10329A0009F465C098110BC0462F50E09B85292F71
:1032AA0030E0265F3F4F4217530709F45AC02C8576
:1032BA00821359C070E04D85842F90E08D9768176E
:1032CA00790709F452C080E05DC0841309C0462F13
:1032DA0050E030E0215F3F4F4217530709F447C0DF
:1032EA00801309C0262F30E0F12C9FE0E90EF11C73
:1032FA002E153F05F1F18C1109C0462F50E02A2DF9
:10330A0030E0215F3F4F42175307A9F188110AC0E5
:10331A00462F50E09B85292F30E0265F3F4F42170A
:10332A00530759F12C8582132AC070E04D85842FEA
:10333A0090E00F966817790721F180E023C081E0B9
:10334A0021C081E01FC081E01DC081E01BC080E078
:10335A0019C081E017C081E015C081E013C081E087
:10336A0011C081E00FC080E00DC081E00BC081E098
:10337A0009C081E007C081E005C081E003C080E0A8
:10338A0001C081E0DF91CF910F91FF90EF90CF9034
:06339A00AF908F90089532
:1033A000EF92FF920F931F93CF93DF93E82EF62EA9
:1033B0008A01CDEC8C9FD12D1124D695D695D6952A
:1033C00068E18D2F0E947A258CEC9AE00197F1F745
:1033D00000C00000DD0F8D2F880F880FD80F69E126
:1033E0008E2D8D1B0E947A258CEC9AE00197F1F7C7
:1033F00000C00000FC9EC12D1124C695C695C6953F
:103400006AE18C2F0E947A258CEC9AE00197F1F703
:1034100000C00000CC0F8C2F880F880FC80F6BE105
:103420008F2D8C1B0E947A258CEC9AE00197F1F786
:1034300000C000009801369527953695279536955A
:103440002795A5ECB0E20E94882DAC0152954295DB
:103450004F7045275F7045279A01ADECBCEC0E9488
:10346000882D9695879596958795969587959C0135
:10347000220F331F880F991F880F991F880F991FDC
:10348000820F931F6CE1242F281B822F0E947A2524
:103490008CEC9AE00197F1F700C000009801369596
:1034A000279536952795ABE7B4E10E94882DAC01AE
:1034B000569547959A01ADECBCEC0E94882D9695E7
:1034C000879596958795969587959C01220F331F32
:1034D000880F991F880F991F880F991F820F931FBC
:1034E0006DE1242F281B822F0E947A258CEC9AE014
:1034F0000197F1F700C000009801ADECBCEC0E9410
:10350000882DEC01D695C795D695C795D695C795C4
:103510009E010E94882D96958795969587959695FC
:1035200087959C01220F331F880F991F880F991FC1
:10353000880F991F820F931F6EE12C2F281B822F5B
:103540000E947A258CEC9AE00197F1F700C0000008
:10355000CE01880F991FCC0FDD1FCC0FDD1FCC0FC4
:10356000DD1FC80FD91F6FE1802F8C1B0E947A25A9
:103570008CEC9AE00197F1F700C00000DF91CF9149
:0A3580001F910F91FF90EF90089546
:10358A004F925F926F927F928F929F92AF92BF9269
:10359A00CF92DF92EF92FF920F931F93CF93DF9315
:1035AA00CDB7DEB729970FB6F894DEBF0FBECDBFF1
:1035BA008130C9F028F0823069F0833009F0B5C053
:1035CA000F2EFDE74F2EFFE35F2EF5E56F2E752CCC
:1035DA00F02D11C00F2E412C512CFCE96F2EF1E475
:1035EA007F2EF02D08C00F2E412C512CFCE86F2E97
:1035FA00F1E47F2EF02DCD82DE82EF82F88648013B
:10360A0059016A017B01898723E33AEF4EE85CE3BB
:10361A00C301B2010E943E2E0E948E1D2B013C0165
:10362A0077FA709477F8709423E33AEF4EE85CE304
:10363A00C501B4010E943E2E4B015C010E948E1D01
:10364A0069837A838B839C8323E33AEF4EE85CE3B6
:10365A00C701B6010E943E2E6B017C010E948E1D9D
:10366A009B01AC0169817A818B819C810E943E2EEB
:10367A009B01AC01C301B2010E94EF2D2B013C0159
:10368A00C501B4010E949C214B015C01C701B6012E
:10369A000E949C219B01AC01C501B4010E943E2EEF
:1036AA009B01AC01C301B2010E943A2E0E949C0FF9
:1036BA0020E030E044E353E40E943E2E28ED3FE050
:1036CA0049E450E40E943A2E20E030E040E751E419
:1036DA000E943A2E2985223069F49B01AC016D8142
:1036EA007E818F8198850E94EF2D562F472F382F84
:1036FA00292F1FC02985233069F49B01AC016D81F4
:10370A007E818F8198850E94EF2D562F472F382F63
:10371A00292F0FC02D813E814F8158850E94F02D9F
:10372A00562F472F382F292F04C050E040E030E0B1
:10373A0020E0652F742F832F922F29960FB6F894C5
:10374A00DEBF0FBECDBFDF91CF911F910F91FF90CA
:10375A00EF90DF90CF90BF90AF909F908F907F9027
:08376A006F905F904F900895ED
:10377200CF92DF92EF92FF920F931F93CF93DF933B
:10378200EB0190E08930910508F0D7C0FC01E65DBD
:10379200FF4F0C94252E488159819A01ADECBCEC67
:1037A2000E94882D969587959695879596958795EB
:1037B2009C01220F331F880F991F880F991F880FB2
:1037C200991F820F931F9A01281B390B293031054B
:1037D20029F44950510959834883AFC04F5F5F4F65
:1037E20059834883AAC0488159819A01ADECBCEC47
:1037F2000E94882DFC01F695E795F695E795F695DA
:10380200E7959F010E94882D9695879596958795B5
:10381200969587959C01220F331F880F991F880F59
:10382200991F880F991F820F931F9F01281B390B25
:103832002930310529F44A555109598348837DC0FD
:10384200465F5F4F5983488378C0488159819A0106
:103852003695279536952795ABE7B4E10E94882DDA
:10386200FC01F695E7959F01ADECBCEC0E94882D1A
:103872009695879596958795969587959C01220FA3
:10388200331F880F991F880F991F880F991F820F66
:10389200931F9F01281B390B2930310529F4445805
:1038A20053405983488349C04C595F4F59834883D9
:1038B20044C0888199819C0128523342283E43E0CA
:1038C200340718F43983288338C088519C4F998370
:1038D200888333C0FA0180818C3019F481E08083BF
:1038E2002CC08F5FFA01808328C0F90180818F315B
:1038F20019F481E0808321C08F5FF90180831DC0AC
:10390200F7018081873111F4108217C08F5FF701B0
:10391200808313C0F80180818B3311F410820DC0B3
:103922008F5FF801808309C0F60180818B3011F42A
:10393200108203C08F5FF6018083DF91CF911F91C8
:0C3942000F91FF90EF90DF90CF90089560
:10394E00CF92DF92EF92FF920F931F93CF93DF935D
:10395E00EB0190E08930910508F0D0C0FC01ED5CE0
:10396E00FF4F0C94252E488159819A01ADECBCEC89
:10397E000E94882D9695879596958795969587950D
:10398E009C01220F331F880F991F880F991F880FD4
:10399E00991F820F931F4817590729F4475F5F4FEE
:1039AE0059834883ABC04150510959834883A6C0FF
:1039BE00488159819A01ADECBCEC0E94882DFC0126
:1039CE00F695E795F695E795F695E7959F010E9492
:1039DE00882D9695879596958795969587959C01B2
:1039EE00220F331F880F991F880F991F880F991F59
:1039FE00820F931FE817F90729F4465A5F4F598330
:103A0E0048837CC04A5051095983488377C0488106
:103A1E0059819A013695279536952795ABE7B4E1EE
:103A2E000E94882DFC01F695E7959F01ADECBCEC4C
:103A3E000E94882D9695879596958795969587954C
:103A4E009C01220F331F880F991F880F991F880F13
:103A5E00991F820F931FE817F90729F44C575C4FF3
:103A6E00598348834BC0445651095983488346C0F5
:103A7E0088819981883E23E0920728F4885D9C4DC9
:103A8E00998388833BC0885E93409983888336C030
:103A9E00FA018081813019F48CE080832FC081502F
:103AAE00FA0180832BC0F9018081813019F48FE1F6
:103ABE00808324C08150F901808320C0F70180816A
:103ACE00811103C087E1808319C08150F701808383
:103ADE0015C0F8018081811103C08BE380830EC075
:103AEE008150F80180830AC0F6018081811103C0E4
:103AFE008BE0808303C08150F6018083DF91CF91EC
:0E3B0E001F910F91FF90EF90DF90CF900895E0
:103B1C00CF92DF92EF92FF92CF93DF9300D000D041
:103B2C00CDB7DEB76B017C01DC01CB01BF778B3DE0
:103B3C002FE0920729E4A2072FE3B20728F500979C
:103B4C0020E8A20729E3B207E0F40097A048B105EA
:103B5C0048F420E030E040E853E0C701B6010E9491
:103B6C003E2E08C020E030E040E85BE7C701B6011C
:103B7C000E94F02D69837A838B839C83C701B601E5
:103B8C00A1C0C701B60198C0B701A601442777FDB3
:103B9C004395552766277727823D23E592072BE728
:103BAC00A20720E4B20768F5843E9B4CA641B044C2
:103BBC00A0F4452B49F02BED3FE049EC5FE3C70146
:103BCC00B6010E94F02D7BC02BED3FE049EC5FE38A
:103BDC00C701B6010E94EF2D6BC0452B49F02BEDB0
:103BEC003FE049E450E4C701B6010E94F02D63C0E8
:103BFC002BED3FE049E450E4C701B6010E94EF2DE4
:103C0C005AC0863D21E3920722EEA20720E4B207B8
:103C1C0068F5803E9D4EAF4AB044A0F4452B49F068
:103C2C0024EE3BEC46E950E4C701B6010E94F02DAE
:103C3C003FC024EE3BEC46E950E4C701B6010E94BC
:103C4C00EF2D3DC0452B49F02BED3FE049EC50E406
:103C5C00C701B6010E94F02D2FC02BED3FE049ECBF
:103C6C0050E4C701B6010E94EF2D26C00097A04872
:103C7C00BF4738F0A7019601C701B6010E94EF2D8E
:103C8C0021C0AE014F5F5F4FC701B6010E940F20EC
:103C9C009C012370332769817A818B819C8121302F
:103CAC00310531F02230310531F0232B41F404C0C1
:103CBC000E94032507C090580E94132403C00E9441
:103CCC00032590580F900F900F900F90DF91CF918C
:0A3CDC00FF90EF90DF90CF90089565
:103CE6002F923F924F925F926F927F928F929F9206
:103CF600AF92BF92CF92DF92EF92FF920F931F93F4
:103D0600CF93DF93CDB7DEB76A970FB6F894DEBFD1
:103D16000FBECDBF09871A872B873C87260137013F
:103D260015019A8E898E0E948C249E012B5F3F4F2F
:103D3600AE014F5F5F4F0E94941569817A818B8136
:103D46009C8109851A852B853C8544E00E94642A5E
:103D56004B015C01ED80FE800F811885A301920165
:103D66000E94DD2069877A878B879C870D811E815B
:103D76002F81388575016401B301A20180E00E949C
:103D8600C51A6D877E878F87988B0D811E812F813F
:103D96003885B301A20181E00E94C51A698B7A8B2E
:103DA6008B8B9C8B0D811E812F813885B301A201DF
:103DB60082E00E94C51A6D8B7E8B8F8B988F0D814A
:103DC6001E812F813885B301A20183E00E94C51AA6
:103DD6006B017C012BA93CA94DA95EA9C501B401C3
:103DE6000E94F3292FA938AD49AD5AAD69857A8568
:103DF6008B859C850E94F3292BAD3CAD4DAD5EAD08
:103E06006D857E858F8598890E94F32921962EAD32
:103E16003FAD219723964EAD5FAD239769897A8989
:103E26008B899C890E94F3299101498D5A8D6D8950
:103E36007E898F89988D0E94F3292FA538A949A9D3
:103E46005AA9C701B6010E94F3296A960FB6F894DB
:103E5600DEBF0FBECDBFDF91CF911F910F91FF90B7
:103E6600EF90DF90CF90BF90AF909F908F907F9014
:0C3E76006F905F904F903F902F90089548
:103E8200CF92DF92EF92FF92CF93DF9300D000D0D8
:103E9200CDB7DEB76B017C01DC01CB01BF778B3D77
:103EA2002FE0920729E4A2072FE3B20738F5009723
:103EB20020E8A20729E3B207E0F40097A048B10581
:103EC20048F420E030E040E853E0C701B6010E9428
:103ED2003E2E08C020E030E040E85BE7C701B601B3
:103EE2000E94F02D69837A838B839C83B601C7017C
:103EF20086C040E050E0C701B6017FC0B701A6010D
:103F0200442777FD4395552766277727823D23E58A
:103F120092072BE7A20720E4B207E8F4843E9B4C09
:103F2200A641B04460F4452B29F02BED3FE049EC6B
:103F32005FE324C02BED3FE049EC5FE328C0452B53
:103F420029F02BED3FE049E450E42EC02BED3FE099
:103F520049E450E432C0863D21E3920722EEA207F3
:103F620020E4B20788F5803E9D4EAF4AB044B0F4DB
:103F7200452B49F024EE3BEC46E950E4C701B6017B
:103F82000E94F02D08C024EE3BEC46E950E4C70144
:103F9200B6010E94EF2D41E050E02FC0452B49F0C1
:103FA2002BED3FE049EC50E4C701B6010E94F02D31
:103FB20008C02BED3FE049EC50E4C701B6010E9476
:103FC200EF2D40E050E019C00097A048BF4738F0FD
:103FD200A7019601C701B6010E94EF2D10C0AE01E4
:103FE2004F5F5F4FC701B6010E940F20AC014170C5
:103FF200552769817A818B819C810E9451226B01B4
:104002007C01C701B6010F900F900F900F90DF91C6
:0C401200CF91FF90EF90DF90CF900895C9
:10401E004F925F926F927F92AF92BF92CF92DF924A
:10402E00EF92FF920F931F93CF93DF93CDB7DEB72F
:10403E002C970FB6F894DEBF0FBECDBF2B013C01FF
:10404E005A01DC01CB01BF778B3D2FE0920729ECA3
:10405E00A2072DE4B20708F042C023E839EF42E28E
:10406E005FE3C301B2010E943E2E20E030E040E447
:10407E005BE40E94F02D20E030E040E45BE40E941F
:10408E00EF2D6B017C010E94F62D69877A878B8755
:10409E009C872AED3FE049EC5FE3C701B6010E9421
:1040AE003E2E9B01AC01C301B2010E94EF2D2B01EC
:1040BE003C0123EA35E848E852E3C701B6010E9405
:1040CE003E2E9B01AC01C301B2010E94EF2DF50102
:1040DE00608371838283938389859A8552C000970A
:1040EE00F0E8AF07FFE7BF0770F0A3019201C3012D
:1040FE00B2010E94EF2DF501608371838283938359
:10410E0080E090E03EC0AC01BD0127E17695679559
:10411E00579547952A95D1F7465951096109710965
:10412E006A017B0137E1CC0CDD1CEE1CFF1C3A95BD
:10413E00D1F78C199D09AE09BF098D839E83AF837C
:10414E00B88700E010E021E030E0BE016F5F7F4FE6
:10415E00CE0105960E94180149815A816B817C819E
:10416E0077FE0AC07058F5014083518362837383D2
:10417E0091958195910905C0F50140835183628324
:10418E0073832C960FB6F894DEBF0FBECDBFDF91B2
:10419E00CF911F910F91FF90EF90DF90CF90BF9036
:0C41AE00AF907F906F905F904F9008954D
:1041BA004F925F926F927F928F929F92AF92BF922D
:1041CA00CF92DF92EF92FF920F931F93CF93DF93D9
:1041DA00CDB7DEB72C970FB6F894DEBF0FBECDBFB2
:1041EA0069877A878B879C8729013A016701780159
:1041FA00A7019601C301B2010E94EF2D23E33AEF12
:10420A004EE85CE30E943E2E0E94411F20E030E00F
:10421A0040E85FE30E94F02D9B01AC0160E070E092
:10422A0080E89FE30E943A2E0E94D61224EE3EE2D4
:10423A0045E652E40E943E2E23E33AEF4EE85CE361
:10424A000E943E2E0E948E1D69837A838B839C83F3
:10425A0023E33AEF4EE85CE3C701B6010E943E2E23
:10426A004B015C010E948E1D6D837E838F8398872C
:10427A0023E33AEF4EE85CE3C301B2010E943E2E0B
:10428A006B017C010E948E1D9B01AC016D817E81B8
:10429A008F8198850E943E2E9B01AC0169817A81AB
:1042AA008B819C810E94EF2D2B013C01C501B40139
:1042BA000E949C214B015C01C701B6010E949C210E
:1042CA009B01AC01C501B4010E943E2E9B01AC01C9
:1042DA00C301B2010E943A2E0E949C0F24EE3EE2D4
:1042EA0045E652E40E943E2E20E030E040E751E4E9
:1042FA000E943A2E29853A854B855C850E94F02DCD
:10430A002C960FB6F894DEBF0FBECDBFDF91CF91CA
:10431A001F910F91FF90EF90DF90CF90BF90AF90D9
:0E432A009F908F907F906F905F904F900895BE
:10433800A4E0B0E0E2EAF1E20C94632C8B019C016A
:104348003F770B3D4FE0140749E424074FE3340758
:10435800B8F40115110540E8240749E3340708F0CB
:104368008DC020E030E040E85BE70E94F02D6983D3
:104378007A838B839C8360E070E080E89FE389C048
:104388006B017C01CC24F7FCC394DD24EE24FF24CC
:10439800023D43E514074BE7240740E4340730F5B2
:1043A800043E4BEC140746E1240740E4340768F068
:1043B8002BED3FE049E450E4C114D10419F00E9408
:1043C800F02D61C00E94EF2D5EC0C114D10439F0F8
:1043D8002BED3FE049EC5FE30E94F02D58C09B01B4
:1043E800AC016BED7FE089EC9FE325C0063D41E31E
:1043F800140742EE240740E4340700F5003E4DEE72
:1044080014074FEA240740E4340768F02BED3FE037
:1044180049EC50E4C114D10419F00E94F02D2EC0CB
:104428000E94EF2D2BC0C114D10409F0905824EE3E
:104438003BEC46E950E40E94EF2D29C00115110517
:1044480040E824074FE7340728F09B01AC010E949D
:10445800EF2D1FC0AE014F5F5F4F0E940F209C01E0
:104468002370332769817A818B819C8121303105C2
:1044780041F02230310539F0232B49F40E940325FD
:1044880008C0905804C00E940325905802C00E949A
:0A44980013242496E8E00C947F2C16
:1044A2004F925F926F927F928F929F92AF92BF9242
:1044B200CF92DF92EF92FF92CF93DF93CDB7DEB729
:1044C2002A970FB6F894DEBF0FBECDBF4B015C0139
:1044D2005A8749879B01AC010E943E2E6B017C01E9
:1044E2009B01AC010E943E2E2B013C01A7019601CB
:1044F200C501B4010E943E2E6D837E838F8398870F
:104502002EEC35E14BE15CE3C701B6010E943E2E81
:1045120020E73DEE42E45BE30E94F02DA30192010D
:104522000E943E2E69837A838B839C832DE93FEE22
:1045320048EC5CE3C701B6010E943E2E29E436EA4C
:104542004AE55DE30E94F02D9B01AC0169817A810D
:104552008B819C810E94F02D69837A838B839C835B
:104562002D813E814F815885C301B2010E943E2EAA
:104572009B01AC0169817A818B819C810E943E2ED4
:104582002B013C012AEE37E948E05EE3C701B601A0
:104592000E943E2E2AE63AEA4AEA5EE30E94F02DA3
:1045A2002D813E814F8158850E943E2EA5019401A6
:1045B2000E94F02DA30192010E94F02D29853A85D7
:1045C200232B41F09B01AC0160E070E080E89FEB9F
:1045D2000E943A2E2A960FB6F894DEBF0FBECDBFC8
:1045E200DF91CF91FF90EF90DF90CF90BF90AF908F
:0E45F2009F908F907F906F905F904F900895F4
:104600004F925F926F927F928F929F92AF92BF92E2
:10461000CF92DF92EF92FF92CF93DF93CDB7DEB7C9
:1046200028970FB6F894DEBF0FBECDBF6B017C019B
:10463000DC01CB0147E1B695A795979587954A95FB
:10464000D1F799278F579109873191059CF597FDEF
:1046500036C088248A94982C3FE7A32EB12C04C03E
:10466000B594A794979487948A95D2F7D501C401FD
:104670008C219D21AE21BF21892B8A2B8B2BD1F040
:1046800020E030E040E85BE7C701B6010E94F02D72
:104690006D837E838F839887F7FE04C0C80CD91C76
:1046A000EA1CFB1C80949094A094B094C820D9205C
:1046B000EA20FB205C2D4D2D3E2D2F2D21C020E02A
:1046C00030E040E85BE7C701B6010E94F02D698346
:1046D0007A838B839C83F7FE0FC0D701C601880FB6
:1046E000991FAA1FBB1F892B8A2B8B2B19F350E014
:1046F00040E030E82FEB04C050E040E030E020E044
:10470000652F742F832F922F28960FB6F894DEBF53
:104710000FBECDBFDF91CF91FF90EF90DF90CF9094
:10472000BF90AF909F908F907F906F905F904F90D1
:024730000895EA
:1047320090E08730910508F074C0FC01E45CFF4F03
:104742000C94252E40E062E082E00E94602640E068
:1047520063E082E00E94602640E064E082E00E9422
:104762006026089541E062E082E00E94602640E017
:1047720063E082E00E94602640E064E082E00E9402
:104782006026089540E062E082E00E94602641E0F7
:1047920063E082E00E94602640E064E082E00E94E2
:1047A2006026089541E062E082E00E94602641E0D6
:1047B20063E082E00E94602640E064E082E00E94C2
:1047C2006026089540E062E082E00E94602640E0B8
:1047D20063E082E00E94602641E064E082E00E94A1
:1047E2006026089541E062E082E00E94602640E097
:1047F20063E082E00E94602641E064E082E00E9481
:104802006026089540E062E082E00E94602641E076
:1048120063E082E00E94602641E064E082E00E9460
:04482200602608956F
:104826004F925F926F927F928F929F92AF92BF92BA
:10483600CF92DF92EF92FF92CF93DF9300D000D01A
:10484600CDB7DEB74B015C019B01AC010E943E2E49
:104856006B017C019B01AC01C501B4010E943E2E97
:1048660069837A838B839C832CE33CE646E356E399
:10487600C701B6010E943E2E2FEC37E040E559E312
:104886000E94EF2D2B013C01A7019601C701B6013D
:104896000E943E2E29813A814B815C810E943E2EE8
:1048A6009B01AC01C301B2010E943E2E2B013C01CB
:1048B60024E838E848E05CE3C701B6010E943E2ED2
:1048C6002BEA3AEA4AE25EE30E94EF2D29813A8119
:1048D6004B815C810E943E2EA50194010E94F02D21
:1048E6009B01AC01C301B2010E94F02D0F900F9005
:1048F6000F900F90DF91CF91FF90EF90DF90CF90C8
:10490600BF90AF909F908F907F906F905F904F90E9
:02491600089502
:104918008F929F92AF92BF92CF92DF92EF92FF92C7
:10492800CF93DF93FC01D62FC42F9C013695279592
:1049380036952795ABE7B4E10E94882D9695879523
:10494800A0E0B0E06C017D01F694E794D794C79499
:10495800F694E794D794C794A7019601281B390BBE
:104968004A0B5B0B69017A0132E0C30ED11CE11CD2
:10497800F11CBF0164597D4E80E090E00E947A29C5
:1049880020E030EA46EB53E40E943E2E0E94FD2AC6
:104998004B015C016D2F70E06F5F7F4F072E000C9D
:1049A800880B990B0E947C2921E03DEC44EF51E4EF
:1049B8000E943E2E0E94FD2ADC01CB01880D991D24
:1049C800AA1DBB1D8C0F911DA11DB11DBC01CD01E0
:1049D8006C0D7D1D8E1D9F1D0E947A2920E030E9F7
:1049E8004EEB54E40E94EF2DDF91CF91FF90EF90B2
:0E49F800DF90CF90BF90AF909F908F9008956A
:104A06004F925F926F927F928F929F92AF92BF92D8
:104A1600CF92DF92EF92FF92CF93DF9300D000D038
:104A2600CDB7DEB79B01AC010E943E2E6B017C0127
:104A36009B01AC010E943E2E2B013C0120E030E0A0
:104A460040E05FEBC701B6010E943E2E20E030E059
:104A560040E85FE30E94F02D4B015C012FE93AEA42
:104A66004AE25DE3C301B2010E943E2E9B01AC0106
:104A7600C501B4010E94F02D4B015C0127E13AE922
:104A86004CEC57E3C701B6010E943E2E2FE334E0FB
:104A960046EB5AE30E94EF2D69837A838B839C83CE
:104AA600A3019201C701B6010E943E2E9B01AC01F3
:104AB60069817A818B819C810E943E2E9B01AC018B
:104AC600C501B4010E94F02D0F900F900F900F902A
:104AD600DF91CF91FF90EF90DF90CF90BF90AF9096
:0E4AE6009F908F907F906F905F904F900895FB
:104AF400CF93DF93C82FD62F6031A0F440E065E058
:104B040082E00E94602641E066E082E00E94602626
:104B140041E067E082E00E9460266D2F83E00E94FE
:104B2400212D2FC06032B0F441E065E082E00E94A4
:104B3400602640E066E082E00E94602641E067E093
:104B440082E00E9460266D2F6295607F83E00E9460
:104B5400212D17C06033A8F441E065E082E00E9493
:104B6400602641E066E082E00E94602640E067E063
:104B740082E00E9460266D2F6295607F81E00E9432
:104B8400212D4C2F417060E081E00E9460264C2F63
:104B9400427050E05595479561E081E00E9460269F
:104BA4004C2F447050E0559547955595479562E0D4
:104BB40081E00E946026C8704C2F50E055954795BF
:104BC400559547955595479563E081E00E94602689
:064BD400DF91CF9108956E
:104BDA00683008F06FC0843008F06CC0813001F191
:104BEA0030F08230B1F1833009F44CC0089541307D
:104BFA0059F42AB381E090E002C0880F991F6A95A0
:104C0A00E2F7822B8ABB08952AB381E090E002C0C2
:104C1A00880F991F6A95E2F7809582238ABB0895C7
:104C2A00413059F427B381E090E002C0880F991F00
:104C3A006A95E2F7822B87BB089527B381E090E05B
:104C4A0002C0880F991F6A95E2F78095822387BB75
:104C5A000895413059F424B381E090E002C0880FEE
:104C6A00991F6A95E2F7822B84BB089524B381E0E9
:104C7A0090E002C0880F991F6A95E2F78095822317
:104C8A0084BB0895413059F421B381E090E002C019
:104C9A00880F991F6A95E2F7822B81BB089521B389
:104CAA0081E090E002C0880F991F6A95E2F780952B
:064CBA00822381BB089576
:104CC000683008F06FC0843008F06CC0813001F1AA
:104CD00030F08230B1F1833009F44CC00895413096
:104CE00059F42BB381E090E002C0880F991F6A95B8
:104CF000E2F7822B8BBB08952BB381E090E002C0DA
:104D0000880F991F6A95E2F7809582238BBB0895DF
:104D1000413059F428B381E090E002C0880F991F18
:104D20006A95E2F7822B88BB089528B381E090E072
:104D300002C0880F991F6A95E2F78095822388BB8D
:104D40000895413059F425B381E090E002C0880F06
:104D5000991F6A95E2F7822B85BB089525B381E000
:104D600090E002C0880F991F6A95E2F78095822330
:104D700085BB0895413059F422B381E090E002C030
:104D8000880F991F6A95E2F7822B82BB089522B3A0
:104D900081E090E002C0880F991F6A95E2F7809544
:064DA000822382BB08958E
:104DA60010C00E94042E58F00E94FD2D40F029F4F8
:104DB6005F3F29F00C941F2E51110C940C2E0C946D
:104DC600422E0E94C02B68F39923B1F3552391F329
:104DD600951B550BBB27AA2762177307840738F064
:104DE6009F5F5F4F220F331F441FAA1FA9F335D0C1
:104DF6000E2E3AF0E0E832D091505040E695001C75
:104E0600CAF72BD0FE2F29D0660F771F881FBB1F2E
:104E1600261737074807AB07B0E809F0BB0B802D0C
:104E2600BF01FF2793585F4F3AF09E3F510578F038
:104E36000C941F2E0C940C2E5F3FE4F3983ED4F393
:104E4600869577956795B795F7959F5FC9F7880F0C
:104E5600911D9695879597F90895E1E0660F771F5E
:104E6600881FBB1F621773078407BA0720F0621BEF
:0E4E7600730B840BBA0BEE1F88F7E0950895BE
:104E84000FC00E94FD2D38F00E94042E20F09523BF
:104E940011F00C941F2E0C94422E11240C940C2E01
:104EA4000E94C02B70F3959FC1F3950F50E0551FDE
:104EB400629FF001729FBB27F00DB11D639FAA276B
:104EC400F00DB11DAA1F649F6627B00DA11D661FBA
:104ED400829F2227B00DA11D621F739FB00DA11DDB
:104EE400621F839FA00D611D221F749F3327A00D95
:104EF400611D231F849F600D211D822F762F6A2F31
:104F040011249F5750409AF0F1F088234AF0EE0F95
:104F1400FF1FBB1F661F771F881F91505040A9F7C2
:104F24009E3F510580F00C941F2E0C940C2E5F3F75
:104F3400E4F3983ED4F3869577956795B795F795FE
:104F4400E7959F5FC1F7FE2B880F911D9695879576
:044F540097F908952C
:104F580011C00E94FD2D38F00E94042E20F039F473
:104F68009F3F19F426F40C94422E0EF4E095E7FBCB
:104F78000C941F2EE92F0E94C02B58F3BA17620712
:104F880073078407950720F079F4A6F50C940B2E87
:104F98000EF4E0950B2EBA2FA02D0B01B90190014C
:104FA8000C01CA01A0011124FF27591B99F0593F90
:104FB80050F4503E68F11A16F040A22F232F342FD8
:104FC8004427585FF3CF469537952795A795F04026
:104FD8005395C9F77EF41F16BA0B620B730B840B3B
:104FE800BAF09150A1F0FF0FBB1F661F771F881FF3
:104FF800C2F70EC0BA0F621F731F841F48F487954B
:1050080077956795B795F7959E3F08F0B0CF93953C
:0E501800880F08F09927EE0F97958795089559
:105026000F931F93CF93DF93EA0140385105D4F0D5
:1050360020E030E040E05FE70E943E2E9E012F57C1
:105046003109203831056CF120E030E040E05FE7BF
:105056000E943E2ECE5FD109C038D1051CF1CFE7A4
:10506600D0E020C042385F4FECF420E030E040E86A
:105076005CE00E943E2E9E012A593F4F22384FEF98
:1050860034077CF420E030E040E85CE00E943E2EED
:10509600C453DF4FC2382FEFD20724F4C2E8DFEF44
:1050A60001C0E9019E0121583F4F8901330F220BB0
:1050B600330BA9019801E7E1220F331F441F551F47
:1050C600EA95D1F70E943E2EDF91CF911F910F9165
:0250D60008953B
:1050D8000F931F93CF93DF93082F162FCDEC8C9F40
:1050E800D12D1124D695D695D69560E28D2F0E94A4
:1050F8007A258CEC9AE00197F1F700C00000DD0FEB
:105108008D2F880F880FD80F61E2802F8D1B0E948A
:105118007A258CEC9AE00197F1F700C000001C9FFB
:10512800C12D1124C695C695C69562E28C2F0E94A2
:105138007A258CEC9AE00197F1F700C00000CC0FBB
:105148008C2F880F880FC80F63E2812F8C1B0E9459
:105158007A258CEC9AE00197F1F700C00000DF9106
:08516800CF911F910F910895F2
:105170006830B0F58430B0F5813089F028F08230A5
:10518000C9F0833011F130C089B390E002C0959529
:1051900087956A95E2F780FF29C081E0089586B37C
:1051A00090E002C0959587956A95E2F780FF20C050
:1051B00081E0089583B390E002C0959587956A9544
:1051C000E2F780FF17C081E0089580B390E002C04D
:1051D000959587956A95E2F780FF0EC081E0089566
:1051E00080E0089580E0089580E0089580E00895CB
:0C51F00080E0089580E0089580E00895BC
:1051FC00FF920F931F93CF93DF93F82E062F142F4C
:10520C00A9013695279536952795ABE7B4E10E9411
:10521C00882DEC01D695C79524E62C9FC0012D9FB7
:10522C00900D1124EA01C81BD90B80ED0E94032CB0
:10523C0083E00E94332D8F2D0E94FC2C0E94332D75
:10524C00802F0E94FC2C0E94332D812F0E94FC2C5D
:10525C000E94332D8C2F0E94FC2C0E94332D0E9417
:0E526C00192EDF91CF911F910F91FF900895A1
:10527A00BF92CF92DF92EF92FF920F931F93CF9339
:10528A00DF93B82E6B017A01E90180ED0E94032CAD
:10529A008B2D0E94332D81ED0E94202C0E94E12D3E
:1052AA000E94972DF60180830E94E12D0E94972D7E
:1052BA00F70180830E94E12D0E94972D88830E9426
:1052CA00E82D0E94972D90E08053984FF801918322
:1052DA0080830E94192EDF91CF911F910F91FF9029
:0A52EA00EF90DF90CF90BF90089581
:1052F400E89409C097FB3EF490958095709561956C
:105304007F4F8F4F9F4F9923A9F0F92F96E9BB2721
:105314009395F695879577956795B795F111F8CF9D
:10532400FAF4BB0F11F460FF1BC06F5F7F4F8F4F08
:105334009F4F16C0882311F096E911C0772321F0FE
:105344009EE8872F762F05C0662371F096E8862F96
:1053540070E060E02AF09A95660F771F881FDAF7ED
:0A536400880F9695879597F9089534
:10536E00A82FCB01FC012491A7FD2081213019F03B
:10537E00233071F019C040E050E060EA70E44093D1
:10538E0060005093610060936200709363000CC0E4
:10539E004AE057ED63E270E4409360005093610081
:1053AE00609362007093630047B1FC012491A7FDE6
:1053BE00208150E4259F900111244F73242B27B98F
:1053CE0026B10196A11DFC018491A7FD8081287F45
:0853DE00822B806886B9089556
:1053E6008F929F92AF92BF92CF92DF92EF92FF92EF
:1053F6000F931F93CF93DF934B015C01EA01890161
:105406000E94F62D6B017C017727072E000C880B76
:10541600990B0E947C299B01AC01C501B4010E9435
:10542600EF2D20E030E040E752E40E943E2E0E943D
:10543600F62DF801C0826883DF91CF911F910F91FD
:10544600FF90EF90DF90CF90BF90AF909F908F909E
:025456000895B7
:105458008430A8F5683098F5813089F028F08230DA
:10546800C9F0833011F108952BB381E090E002C0B8
:10547800880F991F6A95E2F782278BBB089528B396
:1054880081E090E002C0880F991F6A95E2F78227B1
:1054980088BB089525B381E090E002C0880F991F6A
:1054A8006A95E2F7822785BB089522B381E090E0F0
:1054B80002C0880F991F6A95E2F7822782BB089578
:1054C8008F929F92AF92BF92CF92DF92EF92FF920C
:1054D8000F931F93CF93DF934B015C01C901B80170
:1054E800C42F440FDD0B2C9620E030E040E751E458
:1054F8000E943A2E6B017C01BE01DD0F880B990BCF
:105508000E947C29A70196010E94EF2DA501940114
:105518000E94EF2DDF91CF911F910F91FF90EF9097
:0E552800DF90CF90BF90AF909F908F9008952E
:10553600CF9362E080E00E94B82891E0811190E06C
:10554600C92F63E080E00E94B828811102C092E072
:1055560001C090E0C92B64E080E00E94B828811168
:1055660002C094E001C090E0C92B65E080E00E9493
:10557600B828811102C088E001C080E0C82B66E02F
:1055860080E00E94B828811102C080E101C080E05D
:065596008C2BCF9108955B
:10559C00DF92EF92FF920F931F93CF93DF93D82E4E
:1055AC007B018A01E90180ED0E94032C8D2D0E9464
:1055BC00332D81ED0E94202C0E94E12D0E94972D0D
:1055CC00F70180830E94E12D0E94972DF8018083C2
:1055DC000E94E82D0E94972D88830E94192EDF913E
:0E55EC00CF911F910F91FF90EF90DF900895E7
:1055FA000E94C82B88F09F5798F0B92F9927B75166
:10560A00B0F0E1F0660F771F881F991F1AF0BA955C
:10561A00C9F714C0B13091F00E940B2EB1E0089581
:10562A000C940B2E672F782F8827B85F39F0B93F73
:10563A00CCF3869577956795B395D9F73EF490950F
:0E564A008095709561957F4F8F4F9F4F08950B
:10565800CF93DF93D82FCDEC8C9FC12D1124C69505
:10566800C695C69564E28C2F0E947A258CEC9AE048
:105678000197F1F700C00000CC0F8C2F880F880F1E
:10568800C80F65E28D2F8C1B0E947A258CEC9AE05E
:0E5698000197F1F700C00000DF91CF91089557
:1056A600CF93DF93D82FCDEC8C9FC12D1124C695B7
:1056B600C695C69566E28C2F0E947A258CEC9AE0F8
:1056C6000197F1F700C00000CC0F8C2F880F880FD0
:1056D600C80F67E28D2F8C1B0E947A258CEC9AE00E
:0E56E6000197F1F700C00000DF91CF91089509
:1056F400990F0008550FAA0BE0E8FEEF16161706DF
:10570400E807F907C0F012161306E407F50798F046
:10571400621B730B840B950B39F40A2661F0232B5F
:10572400242B252B21F408950A2609F4A140A695DB
:085734008FEF811D811D089516
:10573C0080E00E94782DBC0180E090E00E947A29E4
:10574C0020E030E046E153E40E943E2E20916000C0
:10575C003091610040916200509163000E943E2E96
:10576C0020E030ED4FEB54E40E943A2E0E94FD2ACB
:04577C00862F0895D7
:1057800057FD9058440F551F59F05F3F71F04795F2
:10579000880F97FB991F61F09F3F79F087950895D7
:1057A000121613061406551FF2CF4695F1DF08C0F6
:1057B000161617061806991FF1CF86957105610513
:0457C00008940895AC
:1057C4001F93CF93DF93C82FD62F142F80ED0E9401
:1057D400032C80E00E94332D812F0E94FC2C0E9418
:1057E400332D8D2F0E94FC2C0E94332D8C2F0E9470
:1057F400FC2C0E94332D0E94192EDF91CF911F9112
:02580400089505
:1058060094EA96BF06B607FEFDCF91B1987F983011
:1058160071F483B984E886BF06B607FEFDCF81B171
:10582600887F883131F0803231F482E0089580E05B
:0A583600089581E0089583E00895CD
:1058400094EA96BF06B607FEFDCF91B1987F9031DE
:1058500071F483B984E886BF06B607FEFDCF81B137
:10586000887F803431F0883431F482E0089580E01C
:0A587000089581E0089583E0089593
:10587A006FEF83E00E940F2D6FEF83E00E940F2DE0
:10588A006FEF81E00E940F2D41E065E082E00E9407
:10589A00ED2541E066E082E00E94ED2541E067E007
:0858AA0082E00E94ED25089543
:1058B2002F923F924F925F926F927F928F929F921E
:1058C200AF92BF92CF92DF92EF92FF920F931F930C
:1058D200CF93DF93CDB7DEB7CA1BDB0B0FB6F894BD
:0858E200DEBF0FBECDBF09942B
:1058EA002A88398848885F846E847D848C849B8466
:1058FA00AA84B984C884DF80EE80FD800C811B8174
:10590A00AA81B981CE0FD11D0FB6F894DEBF0FBEA2
:06591A00CDBFED01089570
:1059200040E062E080E00E94ED2540E063E080E03E
:105930000E94ED2540E064E080E00E94ED2540E01B
:1059400065E080E00E94ED2540E066E080E00E9496
:04595000ED250895A4
:10595400A82FCB019C014A2F2F5F3F4F4F4FF901D6
:10596400249147FD208120B911B8FC018491A7FD41
:0C5974008081880F82B984E086BF08950E
:10598000CF93DF9300D0CDB7DEB781E0898382E08B
:105990008A83BE016F5F7F4F80E80E94AA2C0F9020
:0859A0000F90DF91CF910895F3
:1059A80097FB072E16F4009407D077FD09D00E94C4
:1059B800E82C07FC05D03EF4909581959F4F0895FB
:0859C800709561957F4F089571
:1059D000AA1BBB1B51E107C0AA1FBB1FA617B70715
:1059E00010F0A61BB70B881F991F5A95A9F7809531
:0859F0009095BC01CD01089562
:1059F8009DEC899F912D1124969596959695392F12
:105A0800330F232F220F220F230F821B20E1929F97
:065A1800800D1124089529
:105A1E00843078F4813041F028F0823039F08330D0
:105A2E0039F008956ABB089567BB089564BB089565
:045A3E0061BB0895AB
:105A4200843078F4813041F028F0823039F08330AC
:105A520039F008956BBB089568BB089565BB08953E
:045A620062BB089586
